{"address":"0x322813Fd9A801c5507c9de605d63CEA4f2CE6c44","bytecode":"0x60806040523480156200001157600080fd5b506200001f60003362000041565b600180546001600160a01b031916331790556103e860025560038055620000f1565b6200004d828262000051565b5050565b6000828152602081815260408083206001600160a01b038516845290915290205460ff166200004d576000828152602081815260408083206001600160a01b03851684529091529020805460ff19166001179055620000ad3390565b6001600160a01b0316816001600160a01b0316837f2f8788117e7eff1d82e926ec794901d17c78024a50270940304540a733656f0d60405160405180910390a45050565b611e4280620001016000396000f3fe608060405234801561001057600080fd5b506004361061018d5760003560e01c8063817b71b0116100e3578063b82e8bbb1161008c578063cf84208411610066578063cf842084146103c1578063d547741f146103d4578063f46901ed146103e757600080fd5b8063b82e8bbb1461037b578063c18b1d5e1461038e578063c4d66de8146103ae57600080fd5b8063a217fddf116100bd578063a217fddf14610357578063b5505ae91461035f578063b7d187891461037257600080fd5b8063817b71b0146102e05780638a645e45146102f357806391d148541461031357600080fd5b80632f2ff15d116101455780634fc9b3941161011f5780634fc9b3941461027a57806352f7c9881461028d5780636eff6b66146102a057600080fd5b80632f2ff15d1461024157806336568abe146102545780633c41292c1461026757600080fd5b806319a865771161017657806319a86577146101cf578063248a9ca3146101e657806327fa67381461020957600080fd5b806301ffc9a714610192578063175ddbf9146101ba575b600080fd5b6101a56101a03660046118c3565b6103fa565b60405190151581526020015b60405180910390f35b6101cd6101c8366004611935565b610493565b005b6101d860025481565b6040519081526020016101b1565b6101d86101f4366004611988565b60009081526020819052604090206001015490565b61021c610217366004611988565b610580565b60405173ffffffffffffffffffffffffffffffffffffffff90911681526020016101b1565b6101cd61024f3660046119a1565b610616565b6101cd6102623660046119a1565b610640565b6101cd6102753660046119d1565b6106f8565b6101cd610288366004611935565b610721565b6101cd61029b366004611a17565b610803565b6102b36102ae366004611a39565b61081a565b6040805173ffffffffffffffffffffffffffffffffffffffff9384168152929091166020830152016101b1565b6101cd6102ee366004611a56565b6108bc565b60045461021c9073ffffffffffffffffffffffffffffffffffffffff1681565b6101a56103213660046119a1565b60009182526020828152604080842073ffffffffffffffffffffffffffffffffffffffff93909316845291905290205460ff1690565b6101d8600081565b6101cd61036d366004611a56565b61091b565b6101d860035481565b6101cd6103893660046119d1565b610970565b60055461021c9073ffffffffffffffffffffffffffffffffffffffff1681565b6101cd6103bc366004611a39565b610991565b61021c6103cf366004611ab5565b6109e4565b6101cd6103e23660046119a1565b610a96565b6101cd6103f5366004611a39565b610abb565b60007fffffffff0000000000000000000000000000000000000000000000000000000082167f7965db0b00000000000000000000000000000000000000000000000000000000148061048d57507f01ffc9a7000000000000000000000000000000000000000000000000000000007fffffffff000000000000000000000000000000000000000000000000000000008316145b92915050565b6000806104a38686866001610b0e565b9150915060006104d782848860017fffffffffffffffffffffffffffffffffffffffffffffffffffffffffffffffff610bb3565b90506000846104e657336104e8565b825b90506104f5878284610caf565b60008373ffffffffffffffffffffffffffffffffffffffff166337632e3a6040518163ffffffff1660e01b8152600401602060405180830381865afa158015610542573d6000803e3d6000fd5b505050506040513d601f19601f820116820180604052508101906105669190611ae3565b90506105758484836001610e1f565b505050505050505050565b600480546040517fe0ff5b8b00000000000000000000000000000000000000000000000000000000815291820183905260009173ffffffffffffffffffffffffffffffffffffffff9091169063e0ff5b8b90602401602060405180830381865afa1580156105f2573d6000803e3d6000fd5b505050506040513d601f19601f8201168201806040525081019061048d9190611afc565b60008281526020819052604090206001015461063181610f46565b61063b8383610f53565b505050565b73ffffffffffffffffffffffffffffffffffffffff811633146106ea576040517f08c379a000000000000000000000000000000000000000000000000000000000815260206004820152602f60248201527f416363657373436f6e74726f6c3a2063616e206f6e6c792072656e6f756e636560448201527f20726f6c657320666f722073656c66000000000000000000000000000000000060648201526084015b60405180910390fd5b6106f48282611043565b5050565b6000806107088686866000610b0e565b915091506107198183856000610e1f565b505050505050565b6000806107318686866000610b0e565b91509150600061076582848860007fffffffffffffffffffffffffffffffffffffffffffffffffffffffffffffffff610bb3565b90506000846107745733610776565b825b9050610783888284610caf565b60008373ffffffffffffffffffffffffffffffffffffffff166337632e3a6040518163ffffffff1660e01b8152600401602060405180830381865afa1580156107d0573d6000803e3d6000fd5b505050506040513d601f19601f820116820180604052508101906107f49190611ae3565b90506105758484836000610e1f565b600061080e81610f46565b50600391909155600255565b600480546040517fc1a3ddb800000000000000000000000000000000000000000000000000000000815273ffffffffffffffffffffffffffffffffffffffff848116938201939093526000928392169063c1a3ddb8906024016040805180830381865afa15801561088f573d6000803e3d6000fd5b505050506040513d601f19601f820116820180604052508101906108b39190611b19565b91509150915091565b6000806108cc8787876000610b0e565b9150915060006108e082848a600089610bb3565b90508015610911576000846108f557336108f7565b825b9050610904898284610caf565b6105758383886000610e1f565b5050505050505050565b60008061092b8787876001610b0e565b91509150600061093f828489600189610bb3565b90508015610911576000846109545733610956565b825b9050610963888284610caf565b6105758383886001610e1f565b6000806109808686866000610b0e565b915091506107198183856001610e1f565b600061099c81610f46565b50600580547fffffffffffffffffffffffff00000000000000000000000000000000000000001673ffffffffffffffffffffffffffffffffffffffff92909216919091179055565b600480546040517f264c780700000000000000000000000000000000000000000000000000000000815273ffffffffffffffffffffffffffffffffffffffff8581169382019390935283831660248201523060448201526000928392169063264c7807906064016020604051808303816000875af1158015610a6a573d6000803e3d6000fd5b505050506040513d601f19601f82011682018060405250810190610a8e9190611afc565b949350505050565b600082815260208190526040902060010154610ab181610f46565b61063b8383611043565b6000610ac681610f46565b50600180547fffffffffffffffffffffffff00000000000000000000000000000000000000001673ffffffffffffffffffffffffffffffffffffffff92909216919091179055565b600080600060025460035486610b249190611b77565b610b2e9190611bb4565b9050610b3a8186611bef565b92508315610b7857610b4e863330886110fa565b600154610b7390879073ffffffffffffffffffffffffffffffffffffffff1683610caf565b610ba9565b610b84873330886110fa565b600154610ba990889073ffffffffffffffffffffffffffffffffffffffff1683610caf565b5094509492505050565b60008490506000808773ffffffffffffffffffffffffffffffffffffffff1663b8b238316040518163ffffffff1660e01b81526004016040805180830381865afa158015610c05573d6000803e3d6000fd5b505050506040513d601f19601f82011682018060405250810190610c299190611c06565b915091508415610c6e575b600083118015610c4357508115155b8015610c4f5750838211155b15610c6957610c6288876001868661126b565b9250610c34565b610ca3565b600083118015610c7d57508015155b8015610c895750838110155b15610ca357610c9c88876000868561126b565b9250610c6e565b50505b95945050505050565b6040805173ffffffffffffffffffffffffffffffffffffffff8481166024830152604480830185905283518084039091018152606490920183526020820180517bffffffffffffffffffffffffffffffffffffffffffffffffffffffff167fa9059cbb000000000000000000000000000000000000000000000000000000001790529151600092839290871691610d469190611c56565b6000604051808303816000865af19150503d8060008114610d83576040519150601f19603f3d011682016040523d82523d6000602084013e610d88565b606091505b5091509150818015610db2575080511580610db2575080806020019051810190610db29190611c72565b610e18576040517f08c379a000000000000000000000000000000000000000000000000000000000815260206004820152600260248201527f544600000000000000000000000000000000000000000000000000000000000060448201526064016106e1565b5050505050565b8015610eb7576040517fbd25b9c4000000000000000000000000000000000000000000000000000000008152336004820152602481018390526044810184905273ffffffffffffffffffffffffffffffffffffffff85169063bd25b9c490606401600060405180830381600087803b158015610e9a57600080fd5b505af1158015610eae573d6000803e3d6000fd5b50505050610f40565b6040517f04717aca000000000000000000000000000000000000000000000000000000008152336004820152602481018390526044810184905273ffffffffffffffffffffffffffffffffffffffff8516906304717aca90606401600060405180830381600087803b158015610f2c57600080fd5b505af1158015610911573d6000803e3d6000fd5b50505050565b610f5081336115a9565b50565b60008281526020818152604080832073ffffffffffffffffffffffffffffffffffffffff8516845290915290205460ff166106f45760008281526020818152604080832073ffffffffffffffffffffffffffffffffffffffff85168452909152902080547fffffffffffffffffffffffffffffffffffffffffffffffffffffffffffffff00166001179055610fe53390565b73ffffffffffffffffffffffffffffffffffffffff168173ffffffffffffffffffffffffffffffffffffffff16837f2f8788117e7eff1d82e926ec794901d17c78024a50270940304540a733656f0d60405160405180910390a45050565b60008281526020818152604080832073ffffffffffffffffffffffffffffffffffffffff8516845290915290205460ff16156106f45760008281526020818152604080832073ffffffffffffffffffffffffffffffffffffffff8516808552925280832080547fffffffffffffffffffffffffffffffffffffffffffffffffffffffffffffff0016905551339285917ff6391f5c32d9c69d2a47ea670b442974b53935d1edc7fd64eb21e047a839171b9190a45050565b6040805173ffffffffffffffffffffffffffffffffffffffff85811660248301528481166044830152606480830185905283518084039091018152608490920183526020820180517bffffffffffffffffffffffffffffffffffffffffffffffffffffffff167f23b872dd0000000000000000000000000000000000000000000000000000000017905291516000928392908816916111999190611c56565b6000604051808303816000865af19150503d80600081146111d6576040519150601f19603f3d011682016040523d82523d6000602084013e6111db565b606091505b50915091508180156112055750805115806112055750808060200190518101906112059190611c72565b610719576040517f08c379a000000000000000000000000000000000000000000000000000000000815260206004820152600360248201527f544646000000000000000000000000000000000000000000000000000000000060448201526064016106e1565b815b60008111801561131057506040517f0582b7ef000000000000000000000000000000000000000000000000000000008152600481018390528415602482015273ffffffffffffffffffffffffffffffffffffffff871690630582b7ef90604401602060405180830381865afa1580156112ea573d6000803e3d6000fd5b505050506040513d601f19601f8201168201806040525081019061130e9190611c72565b155b15610ca6576040517f420be8a5000000000000000000000000000000000000000000000000000000008152600481018390528415602482015260009073ffffffffffffffffffffffffffffffffffffffff88169063420be8a5906044016020604051808303816000875af115801561138c573d6000803e3d6000fd5b505050506040513d601f19601f820116820180604052508101906113b09190611ae3565b6040517fee7ab7c90000000000000000000000000000000000000000000000000000000081526004810182905290915060009073ffffffffffffffffffffffffffffffffffffffff89169063ee7ab7c990602401602060405180830381865afa158015611421573d6000803e3d6000fd5b505050506040513d601f19601f820116820180604052508101906114459190611ae3565b9050808310156114f25761145a878985610caf565b6040517fc45e0ae6000000000000000000000000000000000000000000000000000000008152600481018390523360248201526044810184905273ffffffffffffffffffffffffffffffffffffffff89169063c45e0ae690606401600060405180830381600087803b1580156114cf57600080fd5b505af11580156114e3573d6000803e3d6000fd5b50505050600092505050610ca6565b806114fe57505061126d565b6115088184611bef565b9250611515878983610caf565b6040517fc45e0ae6000000000000000000000000000000000000000000000000000000008152600481018390523360248201526044810182905273ffffffffffffffffffffffffffffffffffffffff89169063c45e0ae690606401600060405180830381600087803b15801561158a57600080fd5b505af115801561159e573d6000803e3d6000fd5b50505050505061126d565b60008281526020818152604080832073ffffffffffffffffffffffffffffffffffffffff8516845290915290205460ff166106f4576115ff8173ffffffffffffffffffffffffffffffffffffffff166014611679565b61160a836020611679565b60405160200161161b929190611c8f565b604080517fffffffffffffffffffffffffffffffffffffffffffffffffffffffffffffffe0818403018152908290527f08c379a00000000000000000000000000000000000000000000000000000000082526106e191600401611d10565b60606000611688836002611b77565b611693906002611d61565b67ffffffffffffffff8111156116ab576116ab611d79565b6040519080825280601f01601f1916602001820160405280156116d5576020820181803683370190505b5090507f30000000000000000000000000000000000000000000000000000000000000008160008151811061170c5761170c611da8565b60200101907effffffffffffffffffffffffffffffffffffffffffffffffffffffffffffff1916908160001a9053507f78000000000000000000000000000000000000000000000000000000000000008160018151811061176f5761176f611da8565b60200101907effffffffffffffffffffffffffffffffffffffffffffffffffffffffffffff1916908160001a90535060006117ab846002611b77565b6117b6906001611d61565b90505b6001811115611853577f303132333435363738396162636465660000000000000000000000000000000085600f16601081106117f7576117f7611da8565b1a60f81b82828151811061180d5761180d611da8565b60200101907effffffffffffffffffffffffffffffffffffffffffffffffffffffffffffff1916908160001a90535060049490941c9361184c81611dd7565b90506117b9565b5083156118bc576040517f08c379a000000000000000000000000000000000000000000000000000000000815260206004820181905260248201527f537472696e67733a20686578206c656e67746820696e73756666696369656e7460448201526064016106e1565b9392505050565b6000602082840312156118d557600080fd5b81357fffffffff00000000000000000000000000000000000000000000000000000000811681146118bc57600080fd5b73ffffffffffffffffffffffffffffffffffffffff81168114610f5057600080fd5b8015158114610f5057600080fd5b6000806000806080858703121561194b57600080fd5b843561195681611905565b9350602085013561196681611905565b925060408501359150606085013561197d81611927565b939692955090935050565b60006020828403121561199a57600080fd5b5035919050565b600080604083850312156119b457600080fd5b8235915060208301356119c681611905565b809150509250929050565b600080600080608085870312156119e757600080fd5b84356119f281611905565b93506020850135611a0281611905565b93969395505050506040820135916060013590565b60008060408385031215611a2a57600080fd5b50508035926020909101359150565b600060208284031215611a4b57600080fd5b81356118bc81611905565b600080600080600060a08688031215611a6e57600080fd5b8535611a7981611905565b94506020860135611a8981611905565b935060408601359250606086013591506080860135611aa781611927565b809150509295509295909350565b60008060408385031215611ac857600080fd5b8235611ad381611905565b915060208301356119c681611905565b600060208284031215611af557600080fd5b5051919050565b600060208284031215611b0e57600080fd5b81516118bc81611905565b60008060408385031215611b2c57600080fd5b8251611b3781611905565b60208401519092506119c681611905565b7f4e487b7100000000000000000000000000000000000000000000000000000000600052601160045260246000fd5b6000817fffffffffffffffffffffffffffffffffffffffffffffffffffffffffffffffff0483118215151615611baf57611baf611b48565b500290565b600082611bea577f4e487b7100000000000000000000000000000000000000000000000000000000600052601260045260246000fd5b500490565b600082821015611c0157611c01611b48565b500390565b60008060408385031215611c1957600080fd5b505080516020909101519092909150565b60005b83811015611c45578181015183820152602001611c2d565b83811115610f405750506000910152565b60008251611c68818460208701611c2a565b9190910192915050565b600060208284031215611c8457600080fd5b81516118bc81611927565b7f416363657373436f6e74726f6c3a206163636f756e7420000000000000000000815260008351611cc7816017850160208801611c2a565b7f206973206d697373696e6720726f6c65200000000000000000000000000000006017918401918201528351611d04816028840160208801611c2a565b01602801949350505050565b6020815260008251806020840152611d2f816040850160208701611c2a565b601f017fffffffffffffffffffffffffffffffffffffffffffffffffffffffffffffffe0169190910160400192915050565b60008219821115611d7457611d74611b48565b500190565b7f4e487b7100000000000000000000000000000000000000000000000000000000600052604160045260246000fd5b7f4e487b7100000000000000000000000000000000000000000000000000000000600052603260045260246000fd5b600081611de657611de6611b48565b507fffffffffffffffffffffffffffffffffffffffffffffffffffffffffffffffff019056fea2646970667358221220ecace9c2490bbb0c56fdb763e98166fb874a4485c7fae2cc839e507ab2c0113164736f6c634300080a0033","abi":[{"inputs":[],"stateMutability":"nonpayable","type":"constructor"},{"anonymous":false,"inputs":[{"indexed":true,"internalType":"bytes32","name":"role","type":"bytes32"},{"indexed":true,"internalType":"bytes32","name":"previousAdminRole","type":"bytes32"},{"indexed":true,"internalType":"bytes32","name":"newAdminRole","type":"bytes32"}],"name":"RoleAdminChanged","type":"event"},{"anonymous":false,"inputs":[{"indexed":true,"internalType":"bytes32","name":"role","type":"bytes32"},{"indexed":true,"internalType":"address","name":"account","type":"address"},{"indexed":true,"internalType":"address","name":"sender","type":"address"}],"name":"RoleGranted","type":"event"},{"anonymous":false,"inputs":[{"indexed":true,"internalType":"bytes32","name":"role","type":"bytes32"},{"indexed":true,"internalType":"address","name":"account","type":"address"},{"indexed":true,"internalType":"address","name":"sender","type":"address"}],"name":"RoleRevoked","type":"event"},{"inputs":[],"name":"DEFAULT_ADMIN_ROLE","outputs":[{"internalType":"bytes32","name":"","type":"bytes32"}],"stateMutability":"view","type":"function"},{"inputs":[{"internalType":"address","name":"base","type":"address"},{"internalType":"address","name":"quote","type":"address"}],"name":"addBook","outputs":[{"internalType":"address","name":"book","type":"address"}],"stateMutability":"nonpayable","type":"function"},{"inputs":[],"name":"feeDenom","outputs":[{"internalType":"uint256","name":"","type":"uint256"}],"stateMutability":"view","type":"function"},{"inputs":[],"name":"feeNum","outputs":[{"internalType":"uint256","name":"","type":"uint256"}],"stateMutability":"view","type":"function"},{"inputs":[{"internalType":"uint256","name":"id","type":"uint256"}],"name":"getOrderbook","outputs":[{"internalType":"address","name":"","type":"address"}],"stateMutability":"view","type":"function"},{"inputs":[{"internalType":"address","name":"orderbook","type":"address"}],"name":"getOrderbookBaseQuote","outputs":[{"internalType":"address","name":"","type":"address"},{"internalType":"address","name":"","type":"address"}],"stateMutability":"view","type":"function"},{"inputs":[{"internalType":"bytes32","name":"role","type":"bytes32"}],"name":"getRoleAdmin","outputs":[{"internalType":"bytes32","name":"","type":"bytes32"}],"stateMutability":"view","type":"function"},{"inputs":[{"internalType":"bytes32","name":"role","type":"bytes32"},{"internalType":"address","name":"account","type":"address"}],"name":"grantRole","outputs":[],"stateMutability":"nonpayable","type":"function"},{"inputs":[{"internalType":"bytes32","name":"role","type":"bytes32"},{"internalType":"address","name":"account","type":"address"}],"name":"hasRole","outputs":[{"internalType":"bool","name":"","type":"bool"}],"stateMutability":"view","type":"function"},{"inputs":[{"internalType":"address","name":"orderbook_","type":"address"}],"name":"initialize","outputs":[],"stateMutability":"nonpayable","type":"function"},{"inputs":[{"internalType":"address","name":"base","type":"address"},{"internalType":"address","name":"quote","type":"address"},{"internalType":"uint256","name":"amount","type":"uint256"},{"internalType":"uint256","name":"at","type":"uint256"},{"internalType":"bool","name":"isStop","type":"bool"}],"name":"limitBuy","outputs":[],"stateMutability":"nonpayable","type":"function"},{"inputs":[{"internalType":"address","name":"base","type":"address"},{"internalType":"address","name":"quote","type":"address"},{"internalType":"uint256","name":"amount","type":"uint256"},{"internalType":"uint256","name":"at","type":"uint256"},{"internalType":"bool","name":"isStop","type":"bool"}],"name":"limitSell","outputs":[],"stateMutability":"nonpayable","type":"function"},{"inputs":[{"internalType":"address","name":"base","type":"address"},{"internalType":"address","name":"quote","type":"address"},{"internalType":"uint256","name":"amount","type":"uint256"},{"internalType":"bool","name":"isStop","type":"bool"}],"name":"marketBuy","outputs":[],"stateMutability":"nonpayable","type":"function"},{"inputs":[{"internalType":"address","name":"base","type":"address"},{"internalType":"address","name":"quote","type":"address"},{"internalType":"uint256","name":"amount","type":"uint256"},{"internalType":"bool","name":"isStop","type":"bool"}],"name":"marketSell","outputs":[],"stateMutability":"nonpayable","type":"function"},{"inputs":[],"name":"orderbook","outputs":[{"internalType":"address","name":"","type":"address"}],"stateMutability":"view","type":"function"},{"inputs":[],"name":"orderbookFactory","outputs":[{"internalType":"address","name":"","type":"address"}],"stateMutability":"view","type":"function"},{"inputs":[{"internalType":"bytes32","name":"role","type":"bytes32"},{"internalType":"address","name":"account","type":"address"}],"name":"renounceRole","outputs":[],"stateMutability":"nonpayable","type":"function"},{"inputs":[{"internalType":"bytes32","name":"role","type":"bytes32"},{"internalType":"address","name":"account","type":"address"}],"name":"revokeRole","outputs":[],"stateMutability":"nonpayable","type":"function"},{"inputs":[{"internalType":"uint256","name":"feeNum_","type":"uint256"},{"internalType":"uint256","name":"feeDenom_","type":"uint256"}],"name":"setFee","outputs":[],"stateMutability":"nonpayable","type":"function"},{"inputs":[{"internalType":"address","name":"feeTo_","type":"address"}],"name":"setFeeTo","outputs":[],"stateMutability":"nonpayable","type":"function"},{"inputs":[{"internalType":"address","name":"base","type":"address"},{"internalType":"address","name":"quote","type":"address"},{"internalType":"uint256","name":"amount","type":"uint256"},{"internalType":"uint256","name":"at","type":"uint256"}],"name":"stopBuy","outputs":[],"stateMutability":"nonpayable","type":"function"},{"inputs":[{"internalType":"address","name":"base","type":"address"},{"internalType":"address","name":"quote","type":"address"},{"internalType":"uint256","name":"amount","type":"uint256"},{"internalType":"uint256","name":"at","type":"uint256"}],"name":"stopSell","outputs":[],"stateMutability":"nonpayable","type":"function"},{"inputs":[{"internalType":"bytes4","name":"interfaceId","type":"bytes4"}],"name":"supportsInterface","outputs":[{"internalType":"bool","name":"","type":"bool"}],"stateMutability":"view","type":"function"}]}