{"address":"0xc9311588EFF89012421B18D800B1642246c886B5","bytecode":"0x60806040523480156200001157600080fd5b506200001f60003362000041565b600180546001600160a01b031916331790556103e860025560038055620000f1565b6200004d828262000051565b5050565b6000828152602081815260408083206001600160a01b038516845290915290205460ff166200004d576000828152602081815260408083206001600160a01b03851684529091529020805460ff19166001179055620000ad3390565b6001600160a01b0316816001600160a01b0316837f2f8788117e7eff1d82e926ec794901d17c78024a50270940304540a733656f0d60405160405180910390a45050565b611f7f80620001016000396000f3fe608060405234801561001057600080fd5b506004361061018d5760003560e01c8063817b71b0116100e3578063b82e8bbb1161008c578063d547741f11610066578063d547741f146103b4578063f46901ed146103c7578063f8a8fd6d146103da57600080fd5b8063b82e8bbb1461037b578063c4d66de81461038e578063cf842084146103a157600080fd5b8063a217fddf116100bd578063a217fddf14610357578063b5505ae91461035f578063b7d187891461037257600080fd5b8063817b71b0146102e05780638a645e45146102f357806391d148541461031357600080fd5b80632f2ff15d116101455780634fc9b3941161011f5780634fc9b3941461027a57806352f7c9881461028d5780636eff6b66146102a057600080fd5b80632f2ff15d1461024157806336568abe146102545780633c41292c1461026757600080fd5b806319a865771161017657806319a86577146101cf578063248a9ca3146101e657806327fa67381461020957600080fd5b806301ffc9a714610192578063175ddbf9146101ba575b600080fd5b6101a56101a0366004611a00565b6103fa565b60405190151581526020015b60405180910390f35b6101cd6101c8366004611a72565b610493565b005b6101d860025481565b6040519081526020016101b1565b6101d86101f4366004611ac5565b60009081526020819052604090206001015490565b61021c610217366004611ac5565b610580565b60405173ffffffffffffffffffffffffffffffffffffffff90911681526020016101b1565b6101cd61024f366004611ade565b610616565b6101cd610262366004611ade565b610640565b6101cd610275366004611b0e565b6106f8565b6101cd610288366004611a72565b610721565b6101cd61029b366004611b54565b610803565b6102b36102ae366004611b76565b61081a565b6040805173ffffffffffffffffffffffffffffffffffffffff9384168152929091166020830152016101b1565b6101cd6102ee366004611b93565b6108bc565b60045461021c9073ffffffffffffffffffffffffffffffffffffffff1681565b6101a5610321366004611ade565b60009182526020828152604080842073ffffffffffffffffffffffffffffffffffffffff93909316845291905290205460ff1690565b6101d8600081565b6101cd61036d366004611b93565b610966565b6101d860035481565b6101cd610389366004611b0e565b6109ef565b6101cd61039c366004611b76565b610a10565b61021c6103af366004611bf2565b610a63565b6101cd6103c2366004611ade565b610b15565b6101cd6103d5366004611b76565b610b3a565b60055461021c9073ffffffffffffffffffffffffffffffffffffffff1681565b60007fffffffff0000000000000000000000000000000000000000000000000000000082167f7965db0b00000000000000000000000000000000000000000000000000000000148061048d57507f01ffc9a7000000000000000000000000000000000000000000000000000000007fffffffff000000000000000000000000000000000000000000000000000000008316145b92915050565b6000806104a38686866001610b8d565b9150915060006104d782848860017fffffffffffffffffffffffffffffffffffffffffffffffffffffffffffffffff610be8565b90506000846104e657336104e8565b825b90506104f5878284610dc9565b60008373ffffffffffffffffffffffffffffffffffffffff166337632e3a6040518163ffffffff1660e01b8152600401602060405180830381865afa158015610542573d6000803e3d6000fd5b505050506040513d601f19601f820116820180604052508101906105669190611c20565b90506105758484836001610f39565b505050505050505050565b600480546040517fe0ff5b8b00000000000000000000000000000000000000000000000000000000815291820183905260009173ffffffffffffffffffffffffffffffffffffffff9091169063e0ff5b8b90602401602060405180830381865afa1580156105f2573d6000803e3d6000fd5b505050506040513d601f19601f8201168201806040525081019061048d9190611c39565b60008281526020819052604090206001015461063181611060565b61063b838361106d565b505050565b73ffffffffffffffffffffffffffffffffffffffff811633146106ea576040517f08c379a000000000000000000000000000000000000000000000000000000000815260206004820152602f60248201527f416363657373436f6e74726f6c3a2063616e206f6e6c792072656e6f756e636560448201527f20726f6c657320666f722073656c66000000000000000000000000000000000060648201526084015b60405180910390fd5b6106f4828261115d565b5050565b6000806107088686866000610b8d565b915091506107198183856000610f39565b505050505050565b6000806107318686866000610b8d565b91509150600061076582848860007fffffffffffffffffffffffffffffffffffffffffffffffffffffffffffffffff610be8565b90506000846107745733610776565b825b9050610783888284610dc9565b60008373ffffffffffffffffffffffffffffffffffffffff166337632e3a6040518163ffffffff1660e01b8152600401602060405180830381865afa1580156107d0573d6000803e3d6000fd5b505050506040513d601f19601f820116820180604052508101906107f49190611c20565b90506105758484836000610f39565b600061080e81611060565b50600391909155600255565b600480546040517fc1a3ddb800000000000000000000000000000000000000000000000000000000815273ffffffffffffffffffffffffffffffffffffffff848116938201939093526000928392169063c1a3ddb8906024016040805180830381865afa15801561088f573d6000803e3d6000fd5b505050506040513d601f19601f820116820180604052508101906108b39190611c56565b91509150915091565b6000806108cc8787876000610b8d565b60055491935091506000906108fa9073ffffffffffffffffffffffffffffffffffffffff16848a8489610be8565b9050801561095c5760008461090f5733610929565b60055473ffffffffffffffffffffffffffffffffffffffff165b9050610936898284610dc9565b6005546105759073ffffffffffffffffffffffffffffffffffffffff1683886000610f39565b5050505050505050565b6000806109768787876001610b8d565b60055491935091506000906109a59073ffffffffffffffffffffffffffffffffffffffff168489600189610be8565b9050801561095c576000846109ba57336109bc565b825b90506109c9888284610dc9565b6005546105759073ffffffffffffffffffffffffffffffffffffffff1683886001610f39565b6000806109ff8686866000610b8d565b915091506107198183856001610f39565b6000610a1b81611060565b50600580547fffffffffffffffffffffffff00000000000000000000000000000000000000001673ffffffffffffffffffffffffffffffffffffffff92909216919091179055565b600480546040517f264c780700000000000000000000000000000000000000000000000000000000815273ffffffffffffffffffffffffffffffffffffffff8581169382019390935283831660248201523060448201526000928392169063264c7807906064016020604051808303816000875af1158015610ae9573d6000803e3d6000fd5b505050506040513d601f19601f82011682018060405250810190610b0d9190611c39565b949350505050565b600082815260208190526040902060010154610b3081611060565b61063b838361115d565b6000610b4581611060565b50600180547fffffffffffffffffffffffff00000000000000000000000000000000000000001673ffffffffffffffffffffffffffffffffffffffff92909216919091179055565b600080600060025460035486610ba39190611cb4565b610bad9190611cf1565b9050610bb98186611d2c565b92508315610bd257610bcd86333088611214565b610bde565b610bde87333088611214565b5094509492505050565b60008490506000808773ffffffffffffffffffffffffffffffffffffffff1663b8b238316040518163ffffffff1660e01b81526004016040805180830381865afa158015610c3a573d6000803e3d6000fd5b505050506040513d601f19601f82011682018060405250810190610c5e9190611d43565b915091508415610d16575b600083118015610c7857508015155b8015610c845750838111155b15610d1157610c97888760018685611385565b92508773ffffffffffffffffffffffffffffffffffffffff1663b8b238316040518163ffffffff1660e01b81526004016040805180830381865afa158015610ce3573d6000803e3d6000fd5b505050506040513d601f19601f82011682018060405250810190610d079190611d43565b9092509050610c69565b610dbd565b600083118015610d2557508115155b8015610d315750838210155b15610dbd57610d44888760008686611385565b92508773ffffffffffffffffffffffffffffffffffffffff1663b8b238316040518163ffffffff1660e01b81526004016040805180830381865afa158015610d90573d6000803e3d6000fd5b505050506040513d601f19601f82011682018060405250810190610db49190611d43565b92509050610d16565b50505b95945050505050565b6040805173ffffffffffffffffffffffffffffffffffffffff8481166024830152604480830185905283518084039091018152606490920183526020820180517bffffffffffffffffffffffffffffffffffffffffffffffffffffffff167fa9059cbb000000000000000000000000000000000000000000000000000000001790529151600092839290871691610e609190611d93565b6000604051808303816000865af19150503d8060008114610e9d576040519150601f19603f3d011682016040523d82523d6000602084013e610ea2565b606091505b5091509150818015610ecc575080511580610ecc575080806020019051810190610ecc9190611daf565b610f32576040517f08c379a000000000000000000000000000000000000000000000000000000000815260206004820152600260248201527f544600000000000000000000000000000000000000000000000000000000000060448201526064016106e1565b5050505050565b8015610fd1576040517fbd25b9c4000000000000000000000000000000000000000000000000000000008152336004820152602481018390526044810184905273ffffffffffffffffffffffffffffffffffffffff85169063bd25b9c490606401600060405180830381600087803b158015610fb457600080fd5b505af1158015610fc8573d6000803e3d6000fd5b5050505061105a565b6040517f04717aca000000000000000000000000000000000000000000000000000000008152336004820152602481018390526044810184905273ffffffffffffffffffffffffffffffffffffffff8516906304717aca90606401600060405180830381600087803b15801561104657600080fd5b505af115801561095c573d6000803e3d6000fd5b50505050565b61106a81336116e6565b50565b60008281526020818152604080832073ffffffffffffffffffffffffffffffffffffffff8516845290915290205460ff166106f45760008281526020818152604080832073ffffffffffffffffffffffffffffffffffffffff85168452909152902080547fffffffffffffffffffffffffffffffffffffffffffffffffffffffffffffff001660011790556110ff3390565b73ffffffffffffffffffffffffffffffffffffffff168173ffffffffffffffffffffffffffffffffffffffff16837f2f8788117e7eff1d82e926ec794901d17c78024a50270940304540a733656f0d60405160405180910390a45050565b60008281526020818152604080832073ffffffffffffffffffffffffffffffffffffffff8516845290915290205460ff16156106f45760008281526020818152604080832073ffffffffffffffffffffffffffffffffffffffff8516808552925280832080547fffffffffffffffffffffffffffffffffffffffffffffffffffffffffffffff0016905551339285917ff6391f5c32d9c69d2a47ea670b442974b53935d1edc7fd64eb21e047a839171b9190a45050565b6040805173ffffffffffffffffffffffffffffffffffffffff85811660248301528481166044830152606480830185905283518084039091018152608490920183526020820180517bffffffffffffffffffffffffffffffffffffffffffffffffffffffff167f23b872dd0000000000000000000000000000000000000000000000000000000017905291516000928392908816916112b39190611d93565b6000604051808303816000865af19150503d80600081146112f0576040519150601f19603f3d011682016040523d82523d6000602084013e6112f5565b606091505b509150915081801561131f57508051158061131f57508080602001905181019061131f9190611daf565b610719576040517f08c379a000000000000000000000000000000000000000000000000000000000815260206004820152600360248201527f544646000000000000000000000000000000000000000000000000000000000060448201526064016106e1565b815b60008111801561142a57506040517ff6b1d5b9000000000000000000000000000000000000000000000000000000008152841560048201526024810183905273ffffffffffffffffffffffffffffffffffffffff87169063f6b1d5b990604401602060405180830381865afa158015611404573d6000803e3d6000fd5b505050506040513d601f19601f820116820180604052508101906114289190611daf565b155b15610dc0576040517f733f854e000000000000000000000000000000000000000000000000000000008152841560048201526024810183905260009073ffffffffffffffffffffffffffffffffffffffff88169063733f854e906044016020604051808303816000875af11580156114a6573d6000803e3d6000fd5b505050506040513d601f19601f820116820180604052508101906114ca9190611c20565b6040517f6c797bb6000000000000000000000000000000000000000000000000000000008152861560048201526024810182905290915060009073ffffffffffffffffffffffffffffffffffffffff891690636c797bb690604401602060405180830381865afa158015611542573d6000803e3d6000fd5b505050506040513d601f19601f820116820180604052508101906115669190611c20565b9050808310156116215761157b878985610dc9565b6040517f70c7c0060000000000000000000000000000000000000000000000000000000081526004810183905286156024820152604481018590523360648201526084810184905273ffffffffffffffffffffffffffffffffffffffff8916906370c7c0069060a401600060405180830381600087803b1580156115fe57600080fd5b505af1158015611612573d6000803e3d6000fd5b50505050600092505050610dc0565b8061162d575050611387565b6116378184611d2c565b9250611644878983610dc9565b6040517f70c7c0060000000000000000000000000000000000000000000000000000000081526004810183905286156024820152604481018590523360648201526084810182905273ffffffffffffffffffffffffffffffffffffffff8916906370c7c0069060a401600060405180830381600087803b1580156116c757600080fd5b505af11580156116db573d6000803e3d6000fd5b505050505050611387565b60008281526020818152604080832073ffffffffffffffffffffffffffffffffffffffff8516845290915290205460ff166106f45761173c8173ffffffffffffffffffffffffffffffffffffffff1660146117b6565b6117478360206117b6565b604051602001611758929190611dcc565b604080517fffffffffffffffffffffffffffffffffffffffffffffffffffffffffffffffe0818403018152908290527f08c379a00000000000000000000000000000000000000000000000000000000082526106e191600401611e4d565b606060006117c5836002611cb4565b6117d0906002611e9e565b67ffffffffffffffff8111156117e8576117e8611eb6565b6040519080825280601f01601f191660200182016040528015611812576020820181803683370190505b5090507f30000000000000000000000000000000000000000000000000000000000000008160008151811061184957611849611ee5565b60200101907effffffffffffffffffffffffffffffffffffffffffffffffffffffffffffff1916908160001a9053507f7800000000000000000000000000000000000000000000000000000000000000816001815181106118ac576118ac611ee5565b60200101907effffffffffffffffffffffffffffffffffffffffffffffffffffffffffffff1916908160001a90535060006118e8846002611cb4565b6118f3906001611e9e565b90505b6001811115611990577f303132333435363738396162636465660000000000000000000000000000000085600f166010811061193457611934611ee5565b1a60f81b82828151811061194a5761194a611ee5565b60200101907effffffffffffffffffffffffffffffffffffffffffffffffffffffffffffff1916908160001a90535060049490941c9361198981611f14565b90506118f6565b5083156119f9576040517f08c379a000000000000000000000000000000000000000000000000000000000815260206004820181905260248201527f537472696e67733a20686578206c656e67746820696e73756666696369656e7460448201526064016106e1565b9392505050565b600060208284031215611a1257600080fd5b81357fffffffff00000000000000000000000000000000000000000000000000000000811681146119f957600080fd5b73ffffffffffffffffffffffffffffffffffffffff8116811461106a57600080fd5b801515811461106a57600080fd5b60008060008060808587031215611a8857600080fd5b8435611a9381611a42565b93506020850135611aa381611a42565b9250604085013591506060850135611aba81611a64565b939692955090935050565b600060208284031215611ad757600080fd5b5035919050565b60008060408385031215611af157600080fd5b823591506020830135611b0381611a42565b809150509250929050565b60008060008060808587031215611b2457600080fd5b8435611b2f81611a42565b93506020850135611b3f81611a42565b93969395505050506040820135916060013590565b60008060408385031215611b6757600080fd5b50508035926020909101359150565b600060208284031215611b8857600080fd5b81356119f981611a42565b600080600080600060a08688031215611bab57600080fd5b8535611bb681611a42565b94506020860135611bc681611a42565b935060408601359250606086013591506080860135611be481611a64565b809150509295509295909350565b60008060408385031215611c0557600080fd5b8235611c1081611a42565b91506020830135611b0381611a42565b600060208284031215611c3257600080fd5b5051919050565b600060208284031215611c4b57600080fd5b81516119f981611a42565b60008060408385031215611c6957600080fd5b8251611c7481611a42565b6020840151909250611b0381611a42565b7f4e487b7100000000000000000000000000000000000000000000000000000000600052601160045260246000fd5b6000817fffffffffffffffffffffffffffffffffffffffffffffffffffffffffffffffff0483118215151615611cec57611cec611c85565b500290565b600082611d27577f4e487b7100000000000000000000000000000000000000000000000000000000600052601260045260246000fd5b500490565b600082821015611d3e57611d3e611c85565b500390565b60008060408385031215611d5657600080fd5b505080516020909101519092909150565b60005b83811015611d82578181015183820152602001611d6a565b8381111561105a5750506000910152565b60008251611da5818460208701611d67565b9190910192915050565b600060208284031215611dc157600080fd5b81516119f981611a64565b7f416363657373436f6e74726f6c3a206163636f756e7420000000000000000000815260008351611e04816017850160208801611d67565b7f206973206d697373696e6720726f6c65200000000000000000000000000000006017918401918201528351611e41816028840160208801611d67565b01602801949350505050565b6020815260008251806020840152611e6c816040850160208701611d67565b601f017fffffffffffffffffffffffffffffffffffffffffffffffffffffffffffffffe0169190910160400192915050565b60008219821115611eb157611eb1611c85565b500190565b7f4e487b7100000000000000000000000000000000000000000000000000000000600052604160045260246000fd5b7f4e487b7100000000000000000000000000000000000000000000000000000000600052603260045260246000fd5b600081611f2357611f23611c85565b507fffffffffffffffffffffffffffffffffffffffffffffffffffffffffffffffff019056fea264697066735822122044266474d2bae36ca3c678d4e7c6e93caa0294d521043c3f55b6f4baebb7ddba64736f6c634300080a0033","abi":[{"inputs":[],"stateMutability":"nonpayable","type":"constructor"},{"anonymous":false,"inputs":[{"indexed":true,"internalType":"bytes32","name":"role","type":"bytes32"},{"indexed":true,"internalType":"bytes32","name":"previousAdminRole","type":"bytes32"},{"indexed":true,"internalType":"bytes32","name":"newAdminRole","type":"bytes32"}],"name":"RoleAdminChanged","type":"event"},{"anonymous":false,"inputs":[{"indexed":true,"internalType":"bytes32","name":"role","type":"bytes32"},{"indexed":true,"internalType":"address","name":"account","type":"address"},{"indexed":true,"internalType":"address","name":"sender","type":"address"}],"name":"RoleGranted","type":"event"},{"anonymous":false,"inputs":[{"indexed":true,"internalType":"bytes32","name":"role","type":"bytes32"},{"indexed":true,"internalType":"address","name":"account","type":"address"},{"indexed":true,"internalType":"address","name":"sender","type":"address"}],"name":"RoleRevoked","type":"event"},{"inputs":[],"name":"DEFAULT_ADMIN_ROLE","outputs":[{"internalType":"bytes32","name":"","type":"bytes32"}],"stateMutability":"view","type":"function"},{"inputs":[{"internalType":"address","name":"base","type":"address"},{"internalType":"address","name":"quote","type":"address"}],"name":"addPair","outputs":[{"internalType":"address","name":"book","type":"address"}],"stateMutability":"nonpayable","type":"function"},{"inputs":[],"name":"feeDenom","outputs":[{"internalType":"uint256","name":"","type":"uint256"}],"stateMutability":"view","type":"function"},{"inputs":[],"name":"feeNum","outputs":[{"internalType":"uint256","name":"","type":"uint256"}],"stateMutability":"view","type":"function"},{"inputs":[{"internalType":"uint256","name":"id","type":"uint256"}],"name":"getOrderbook","outputs":[{"internalType":"address","name":"","type":"address"}],"stateMutability":"view","type":"function"},{"inputs":[{"internalType":"address","name":"orderbook","type":"address"}],"name":"getOrderbookBaseQuote","outputs":[{"internalType":"address","name":"","type":"address"},{"internalType":"address","name":"","type":"address"}],"stateMutability":"view","type":"function"},{"inputs":[{"internalType":"bytes32","name":"role","type":"bytes32"}],"name":"getRoleAdmin","outputs":[{"internalType":"bytes32","name":"","type":"bytes32"}],"stateMutability":"view","type":"function"},{"inputs":[{"internalType":"bytes32","name":"role","type":"bytes32"},{"internalType":"address","name":"account","type":"address"}],"name":"grantRole","outputs":[],"stateMutability":"nonpayable","type":"function"},{"inputs":[{"internalType":"bytes32","name":"role","type":"bytes32"},{"internalType":"address","name":"account","type":"address"}],"name":"hasRole","outputs":[{"internalType":"bool","name":"","type":"bool"}],"stateMutability":"view","type":"function"},{"inputs":[{"internalType":"address","name":"orderbook_","type":"address"}],"name":"initialize","outputs":[],"stateMutability":"nonpayable","type":"function"},{"inputs":[{"internalType":"address","name":"base","type":"address"},{"internalType":"address","name":"quote","type":"address"},{"internalType":"uint256","name":"amount","type":"uint256"},{"internalType":"uint256","name":"at","type":"uint256"},{"internalType":"bool","name":"isStop","type":"bool"}],"name":"limitBuy","outputs":[],"stateMutability":"nonpayable","type":"function"},{"inputs":[{"internalType":"address","name":"base","type":"address"},{"internalType":"address","name":"quote","type":"address"},{"internalType":"uint256","name":"amount","type":"uint256"},{"internalType":"uint256","name":"at","type":"uint256"},{"internalType":"bool","name":"isStop","type":"bool"}],"name":"limitSell","outputs":[],"stateMutability":"nonpayable","type":"function"},{"inputs":[{"internalType":"address","name":"base","type":"address"},{"internalType":"address","name":"quote","type":"address"},{"internalType":"uint256","name":"amount","type":"uint256"},{"internalType":"bool","name":"isStop","type":"bool"}],"name":"marketBuy","outputs":[],"stateMutability":"nonpayable","type":"function"},{"inputs":[{"internalType":"address","name":"base","type":"address"},{"internalType":"address","name":"quote","type":"address"},{"internalType":"uint256","name":"amount","type":"uint256"},{"internalType":"bool","name":"isStop","type":"bool"}],"name":"marketSell","outputs":[],"stateMutability":"nonpayable","type":"function"},{"inputs":[],"name":"orderbookFactory","outputs":[{"internalType":"address","name":"","type":"address"}],"stateMutability":"view","type":"function"},{"inputs":[{"internalType":"bytes32","name":"role","type":"bytes32"},{"internalType":"address","name":"account","type":"address"}],"name":"renounceRole","outputs":[],"stateMutability":"nonpayable","type":"function"},{"inputs":[{"internalType":"bytes32","name":"role","type":"bytes32"},{"internalType":"address","name":"account","type":"address"}],"name":"revokeRole","outputs":[],"stateMutability":"nonpayable","type":"function"},{"inputs":[{"internalType":"uint256","name":"feeNum_","type":"uint256"},{"internalType":"uint256","name":"feeDenom_","type":"uint256"}],"name":"setFee","outputs":[],"stateMutability":"nonpayable","type":"function"},{"inputs":[{"internalType":"address","name":"feeTo_","type":"address"}],"name":"setFeeTo","outputs":[],"stateMutability":"nonpayable","type":"function"},{"inputs":[{"internalType":"address","name":"base","type":"address"},{"internalType":"address","name":"quote","type":"address"},{"internalType":"uint256","name":"amount","type":"uint256"},{"internalType":"uint256","name":"at","type":"uint256"}],"name":"stopBuy","outputs":[],"stateMutability":"nonpayable","type":"function"},{"inputs":[{"internalType":"address","name":"base","type":"address"},{"internalType":"address","name":"quote","type":"address"},{"internalType":"uint256","name":"amount","type":"uint256"},{"internalType":"uint256","name":"at","type":"uint256"}],"name":"stopSell","outputs":[],"stateMutability":"nonpayable","type":"function"},{"inputs":[{"internalType":"bytes4","name":"interfaceId","type":"bytes4"}],"name":"supportsInterface","outputs":[{"internalType":"bool","name":"","type":"bool"}],"stateMutability":"view","type":"function"},{"inputs":[],"name":"test","outputs":[{"internalType":"address","name":"","type":"address"}],"stateMutability":"view","type":"function"}]}