{"address":"0xc22b206838647E53Fd92eB31BA23ce17C86169DD","bytecode":"0x60806040526000805460ff1916905534801561001a57600080fd5b50611aca8061002a6000396000f3fe608060405234801561001057600080fd5b50600436106100f55760003560e01c8063a6628f4e11610097578063c0c53b8b11610066578063c0c53b8b14610230578063c45e0ae614610243578063dc1a804f14610256578063ee7ab7c91461026957600080fd5b8063a6628f4e14610191578063a85c38ef146101a4578063b8b2383114610202578063bd25b9c41461021d57600080fd5b806332b6fede116100d357806332b6fede1461014257806337632e3a14610163578063420be8a51461016b5780637323a7d31461017e57600080fd5b806304717aca146100fa5780630582b7ef1461010f578063158ef93e14610137575b600080fd5b61010d6101083660046117cb565b61027c565b005b61012261011d36600461180f565b610499565b60405190151581526020015b60405180910390f35b60005460ff16610122565b61015561015036600461180f565b6104b0565b60405190815260200161012e565b6101556104be565b61015561017936600461180f565b6104cf565b61010d61018c36600461183f565b61063e565b61012261019f36600461180f565b61086b565b6101b76101b236600461186b565b610881565b6040805173ffffffffffffffffffffffffffffffffffffffff9788168152951515602087015285019390935293166060830152608082019290925260a081019190915260c00161012e565b6007546008546040805192835260208301919091520161012e565b61010d61022b3660046117cb565b6108f9565b61010d61023e366004611884565b6109a6565b61010d6102513660046118c7565b610b88565b6101556102643660046118fc565b610db4565b61015561027736600461186b565b610eca565b6102896009836000610ef8565b6001546040805160c08082018352600080835260208084018290528385018290526060808501839052608080860184905260a09586018490528651948501875273ffffffffffffffffffffffffffffffffffffffff808c168652928501849052958401899052951694820194909452918201849052810182905290506103126005600085610f76565b600e546103269060099085906000906110ed565b600e8054600181018255600091909152815160059091027fbb7b4a454dc3493923482f07822329ed19e8244eff582cc204f8554c3620c3fd810180546020850151151574010000000000000000000000000000000000000000027fffffffffffffffffffffff00000000000000000000000000000000000000000090911673ffffffffffffffffffffffffffffffffffffffff9485161717905560408301517fbb7b4a454dc3493923482f07822329ed19e8244eff582cc204f8554c3620c3fe82015560608301517fbb7b4a454dc3493923482f07822329ed19e8244eff582cc204f8554c3620c3ff82018054919093167fffffffffffffffffffffffff0000000000000000000000000000000000000000919091161790915560808201517fbb7b4a454dc3493923482f07822329ed19e8244eff582cc204f8554c3620c40082015560a0909101517fbb7b4a454dc3493923482f07822329ed19e8244eff582cc204f8554c3620c40190910155505050565b60006104a7600984846111e5565b90505b92915050565b60006104a76009848461120e565b60006104ca60056112b6565b905090565b600d5460009073ffffffffffffffffffffffffffffffffffffffff163314610558576040517f08c379a000000000000000000000000000000000000000000000000000000000815260206004820152601760248201527f4f6e6c7920656e67696e652063616e206465717565756500000000000000000060448201526064015b60405180910390fd5b610564600984846111e5565b156105cb576040517f08c379a000000000000000000000000000000000000000000000000000000000815260206004820152600e60248201527f517565756520697320656d707479000000000000000000000000000000000000604482015260640161054f565b6105d760098484611355565b9050811561060f576000838152600a6020526040902060018101549054111561060a576106066005838561158e565b6008555b6104aa565b6000838152600c6020526040902060018101549054111561060a576106366005838561158e565b6007556104aa565b600d5473ffffffffffffffffffffffffffffffffffffffff1633146106bf576040517f08c379a000000000000000000000000000000000000000000000000000000000815260206004820152601760248201527f4f6e6c7920656e67696e652063616e2064657175657565000000000000000000604482015260640161054f565b6000600e83815481106106d4576106d461191e565b60009182526020918290206040805160c081018252600593909302909101805473ffffffffffffffffffffffffffffffffffffffff8082168086527401000000000000000000000000000000000000000090920460ff16151595850195909552600182015492840192909252600281015484166060840152600381015460808401526004015460a0830152909250908316146107cc576040517f08c379a000000000000000000000000000000000000000000000000000000000815260206004820152601b60248201527f4f6e6c79206f776e65722063616e2063616e63656c206f726465720000000000604482015260640161054f565b600e83815481106107df576107df61191e565b60009182526020822060059091020180547fffffffffffffffffffffff000000000000000000000000000000000000000000168155600181018290556002810180547fffffffffffffffffffffffff0000000000000000000000000000000000000000169055600381018290556004015560608101516080820151610866919084906115c2565b505050565b600061087960098484611732565b159392505050565b600e818154811061089157600080fd5b60009182526020909120600590910201805460018201546002830154600384015460049094015473ffffffffffffffffffffffffffffffffffffffff80851696507401000000000000000000000000000000000000000090940460ff16949293909116919086565b6109066009836000610ef8565b6002546040805160c08082018352600080835260208084018290528385018290526060808501839052608080860184905260a09586018490528651948501875273ffffffffffffffffffffffffffffffffffffffff808c168652600193860193909352958401899052951694820194909452918201849052810182905290506109926005600185610f76565b600e546103269060099085906001906110ed565b60005460ff16156109b657600080fd5b60405180608001604052808473ffffffffffffffffffffffffffffffffffffffff1681526020018373ffffffffffffffffffffffffffffffffffffffff1681526020018473ffffffffffffffffffffffffffffffffffffffff1663313ce5676040518163ffffffff1660e01b8152600401602060405180830381865afa158015610a44573d6000803e3d6000fd5b505050506040513d601f19601f82011682018060405250810190610a68919061194d565b81526020018373ffffffffffffffffffffffffffffffffffffffff1663313ce5676040518163ffffffff1660e01b8152600401602060405180830381865afa158015610ab8573d6000803e3d6000fd5b505050506040513d601f19601f82011682018060405250810190610adc919061194d565b90528051600180547fffffffffffffffffffffffff000000000000000000000000000000000000000090811673ffffffffffffffffffffffffffffffffffffffff93841617825560208401516002805483169185169190911790556040840151600355606090930151600455600d805490931693909116929092179055600080547fffffffffffffffffffffffffffffffffffffffffffffffffffffffffffffff001690911790555050565b6000600e8481548110610b9d57610b9d61191e565b600091825260208083206040805160c081018252600594909402909101805473ffffffffffffffffffffffffffffffffffffffff80821686527401000000000000000000000000000000000000000090910460ff1615159385019390935260018101549184019190915260028101549091166060830152600381015460808301526004015460a08201529150610c338584610db4565b9050816020015115610c7957610c4e826060015185856115c2565b6001548251610c749173ffffffffffffffffffffffffffffffffffffffff1690836115c2565b610cb0565b610c8c82606001518360000151856115c2565b600254610cb09073ffffffffffffffffffffffffffffffffffffffff1685856115c2565b600083836080015111610cd1576080830151610ccc9085611995565b610ce1565b838360800151610ce19190611995565b9050610cf0620f4240856119ac565b8111610d7f57600e8681548110610d0957610d0961191e565b60009182526020822060059091020180547fffffffffffffffffffffff000000000000000000000000000000000000000000168155600181018290556002810180547fffffffffffffffffffffffff00000000000000000000000000000000000000001690556003810182905560040155610dac565b8383608001818151610d919190611995565b90525060a083018051859190610da89083906119e7565b9052505b505050505050565b600080600e8481548110610dca57610dca61191e565b600091825260208083206040805160c081018252600594909402909101805473ffffffffffffffffffffffffffffffffffffffff80821686527401000000000000000000000000000000000000000090910460ff16151593850184905260018201549285019290925260028101549091166060840152600381015460808401526004015460a0830152909250610e88576003546040830151610e6c91906119ff565b600454610e7990866119ff565b610e8391906119ff565b610eb1565b6004546040830151610e9a91906119ff565b600354610ea790866119ff565b610eb191906119ac565b9050610ec16305f5e100826119ac565b95945050505050565b6000600e8281548110610edf57610edf61191e565b9060005260206000209060050201600301549050919050565b610f03838383611732565b610f0c57505050565b8015610f43575060408051808201825260018082526000602080840182815295825295820190955291909320925183559051910155565b60408051808201825260018082526000602080840182815287835260038901909152939020915182559151910155505050565b8115611041576003830154610f915760039092019190915550565b60038301545b80821015610fb5576000908152600184016020526040902054610f97565b80610fd957600082815260018501602052604090208190556003840182905561103b565b600081815260018501602052604090205482111561101a5760008181526001850160205260408082208054858452918320919091559082905282905561103b565b808214156110275761103b565b600082815260018501602052604090208190555b50505050565b60028301546110565760029092019190915550565b60028301545b808211156110785760009081526020849052604090205461105c565b8061109a5760008281526020859052604090208190556002840182905561103b565b6000818152602085905260409020548210156110d7576000818152602085905260408082208054858452918320919091559082905282905561103b565b6000918252602093909352604090209190915550565b811561116857600083815260018581016020526040822081018054919290916111179084906119e7565b9091555050600083815260018581016020908152604080842090920154825180830188905280840191909152825180820384018152606090910183528051908201208352869052902081905561103b565b6001846003016000858152602001908152602001600020600101600082825461119191906119e7565b90915550506000838152600385016020908152604080832060010154815180840197909752868201528051808703820181526060909601815285519582019590952082526002909501909452919092205550565b60006111f284848461120e565b15806112045750611204848484611732565b90505b9392505050565b6000811561126f57600083815260018086016020526040909120908101549054111561123c57506000611207565b600083815260018086016020526040909120805491015461125d9190611995565b6112689060016119e7565b9050611207565b6000838152600385016020526040902060018101549054111561129457506000611207565b60008381526003850160205260409020805460019091015461125d9190611995565b60008082600201541180156112cf575060008260030154115b611335576040517f08c379a000000000000000000000000000000000000000000000000000000000815260206004820152601560248201527f4e6f206f7264657273206d617463686564207965740000000000000000000000604482015260640161054f565b60028260030154836002015461134b91906119e7565b6104aa91906119ac565b600483015460009073ffffffffffffffffffffffffffffffffffffffff1633146113db576040517f08c379a000000000000000000000000000000000000000000000000000000000815260206004820152601760248201527f4f6e6c7920656e67696e652063616e2064657175657565000000000000000000604482015260640161054f565b6113e68484846111e5565b1561144d576040517f08c379a000000000000000000000000000000000000000000000000000000000815260206004820152600e60248201527f517565756520697320656d707479000000000000000000000000000000000000604482015260640161054f565b81156114f357506000828152600184810160208181526040808520805482518085018a905280840182905283518082038501815260608201855280519086012088528a8552838820548a8952868652608082018b905260a0808301939093528451808303909301835260c0909101845281519185019190912087528984529186208690558786529290915281549093906114e89084906119e7565b909155506112079050565b506000828152600384016020818152604080842080548251808501899052808401829052835180820385018152606082018552805190860120875260028a01808652848820548a8952878752608083018b905260a0808401949094528551808403909401845260c0909201855282519286019290922087529084529185208590558685529290915281549092600192916114e89084906119e7565b600082156115ad57506000818152600184016020526040902054611207565b50600081815260208490526040902054611207565b6040805173ffffffffffffffffffffffffffffffffffffffff8481166024830152604480830185905283518084039091018152606490920183526020820180517bffffffffffffffffffffffffffffffffffffffffffffffffffffffff167fa9059cbb0000000000000000000000000000000000000000000000000000000017905291516000928392908716916116599190611a3c565b6000604051808303816000865af19150503d8060008114611696576040519150601f19603f3d011682016040523d82523d6000602084013e61169b565b606091505b50915091508180156116c55750805115806116c55750808060200190518101906116c59190611a77565b61172b576040517f08c379a000000000000000000000000000000000000000000000000000000000815260206004820152600260248201527f5446000000000000000000000000000000000000000000000000000000000000604482015260640161054f565b5050505050565b6000811561176e576000838152600185016020526040902054158015611268575050600082815260018481016020526040909120015415611207565b6000838152600385016020526040902054158015611268575050600082815260038401602052604090206001015415611207565b803573ffffffffffffffffffffffffffffffffffffffff811681146117c657600080fd5b919050565b6000806000606084860312156117e057600080fd5b6117e9846117a2565b95602085013595506040909401359392505050565b801515811461180c57600080fd5b50565b6000806040838503121561182257600080fd5b823591506020830135611834816117fe565b809150509250929050565b6000806040838503121561185257600080fd5b82359150611862602084016117a2565b90509250929050565b60006020828403121561187d57600080fd5b5035919050565b60008060006060848603121561189957600080fd5b6118a2846117a2565b92506118b0602085016117a2565b91506118be604085016117a2565b90509250925092565b6000806000606084860312156118dc57600080fd5b833592506118ec602085016117a2565b9150604084013590509250925092565b6000806040838503121561190f57600080fd5b50508035926020909101359150565b7f4e487b7100000000000000000000000000000000000000000000000000000000600052603260045260246000fd5b60006020828403121561195f57600080fd5b5051919050565b7f4e487b7100000000000000000000000000000000000000000000000000000000600052601160045260246000fd5b6000828210156119a7576119a7611966565b500390565b6000826119e2577f4e487b7100000000000000000000000000000000000000000000000000000000600052601260045260246000fd5b500490565b600082198211156119fa576119fa611966565b500190565b6000817fffffffffffffffffffffffffffffffffffffffffffffffffffffffffffffffff0483118215151615611a3757611a37611966565b500290565b6000825160005b81811015611a5d5760208186018101518583015201611a43565b81811115611a6c576000828501525b509190910192915050565b600060208284031215611a8957600080fd5b8151611207816117fe56fea2646970667358221220816b1f50e32c9c2a3e39e76da08d93568815920c2c0556fd4e5de9fcb6b8691964736f6c634300080a0033","abi":[{"inputs":[{"internalType":"uint256","name":"orderId","type":"uint256"},{"internalType":"address","name":"owner","type":"address"}],"name":"cancelOrder","outputs":[],"stateMutability":"nonpayable","type":"function"},{"inputs":[{"internalType":"uint256","name":"price","type":"uint256"},{"internalType":"bool","name":"isAsk","type":"bool"}],"name":"dequeue","outputs":[{"internalType":"uint256","name":"orderId","type":"uint256"}],"stateMutability":"nonpayable","type":"function"},{"inputs":[{"internalType":"uint256","name":"orderId","type":"uint256"},{"internalType":"address","name":"sender","type":"address"},{"internalType":"uint256","name":"amount","type":"uint256"}],"name":"execute","outputs":[],"stateMutability":"nonpayable","type":"function"},{"inputs":[{"internalType":"uint256","name":"orderId","type":"uint256"}],"name":"getOrderDepositAmount","outputs":[{"internalType":"uint256","name":"depositAmount","type":"uint256"}],"stateMutability":"view","type":"function"},{"inputs":[{"internalType":"uint256","name":"orderId","type":"uint256"},{"internalType":"uint256","name":"amount","type":"uint256"}],"name":"getRequired","outputs":[{"internalType":"uint256","name":"","type":"uint256"}],"stateMutability":"view","type":"function"},{"inputs":[],"name":"heads","outputs":[{"internalType":"uint256","name":"","type":"uint256"},{"internalType":"uint256","name":"","type":"uint256"}],"stateMutability":"view","type":"function"},{"inputs":[{"internalType":"address","name":"base_","type":"address"},{"internalType":"address","name":"quote_","type":"address"},{"internalType":"address","name":"engine_","type":"address"}],"name":"initialize","outputs":[],"stateMutability":"nonpayable","type":"function"},{"inputs":[],"name":"initialized","outputs":[{"internalType":"bool","name":"","type":"bool"}],"stateMutability":"view","type":"function"},{"inputs":[{"internalType":"uint256","name":"price","type":"uint256"},{"internalType":"bool","name":"isAsk","type":"bool"}],"name":"isEmpty","outputs":[{"internalType":"bool","name":"","type":"bool"}],"stateMutability":"view","type":"function"},{"inputs":[{"internalType":"uint256","name":"price","type":"uint256"},{"internalType":"bool","name":"isAsk","type":"bool"}],"name":"isInitialized","outputs":[{"internalType":"bool","name":"","type":"bool"}],"stateMutability":"view","type":"function"},{"inputs":[{"internalType":"uint256","name":"price","type":"uint256"},{"internalType":"bool","name":"isAsk","type":"bool"}],"name":"length","outputs":[{"internalType":"uint256","name":"","type":"uint256"}],"stateMutability":"view","type":"function"},{"inputs":[],"name":"mktPrice","outputs":[{"internalType":"uint256","name":"","type":"uint256"}],"stateMutability":"view","type":"function"},{"inputs":[{"internalType":"uint256","name":"","type":"uint256"}],"name":"orders","outputs":[{"internalType":"address","name":"owner","type":"address"},{"internalType":"bool","name":"isAsk","type":"bool"},{"internalType":"uint256","name":"price","type":"uint256"},{"internalType":"address","name":"deposit","type":"address"},{"internalType":"uint256","name":"depositAmount","type":"uint256"},{"internalType":"uint256","name":"filled","type":"uint256"}],"stateMutability":"view","type":"function"},{"inputs":[{"internalType":"address","name":"owner","type":"address"},{"internalType":"uint256","name":"price","type":"uint256"},{"internalType":"uint256","name":"amount","type":"uint256"}],"name":"placeAsk","outputs":[],"stateMutability":"nonpayable","type":"function"},{"inputs":[{"internalType":"address","name":"owner","type":"address"},{"internalType":"uint256","name":"price","type":"uint256"},{"internalType":"uint256","name":"amount","type":"uint256"}],"name":"placeBid","outputs":[],"stateMutability":"nonpayable","type":"function"}]}